:02000000AB282B
:10000600710DF80DF90D7408F8027508031C750FCB
:10001600F902F00DF10D0F30FC00710DF80DF90D20
:100026007408701C1C28F8027508031C750FF90269
:100036002128F80775080318750FF907F00DF10D5B
:10004600FC0B102870182D287408F807750803187B
:08005600750FF9070000080016
:0E005E008312031329088A0028088200080074
:10006C002F208A110A128000840AA80A0319A90AEF
:08007C00F003031D3628080003
:10008400831203137408003A031D51287508003ABB
:10009400031D5128FF30F0007F30F100AA2883129D
:1000A4000313FD01F901F801710870040319003408
:1000B40071087506FA00FA1BFD09FB01F51F672894
:1000C400F409F509F40A0319F50AF11F6E28F00979
:1000D400F109F00A0319F10A71087504FA00FA1B10
:1000E400832803207B189628FD1F0034F009F109AA
:1000F400F00A0319F10AF809F909F80A0319F90AC7
:100104000034F51F9228F11B8E287108F90070083D
:10011400F800F101F0017628F101F001F00A003451
:10012400F109F009FB0A7328F80A0319F90A74089B
:100134007802031D762875087902031D7628F901D3
:10014400F801F00A0319F10AF11F76280000FF34C0
:020154000800A1
:1001560083120313A001A101A201A301A401A50119
:10016600A601A701073083169F0088018701831225
:10017600870183160514831205108316051483124E
:1001860085108316061086100611861183128610B6
:1001960006100611861188018801051C8D29880123
:1001A6002330A0000030A10080302106F00080300E
:1001B6007002031DE02800302002031C3B290518AD
:1001C600E728870188013B29081408168030F000CB
:1001D600803021067002031DF2282008033C031C10
:1001E600F628881608128030F0008030210670024A
:1001F600031DFF2820081F3C031C0D298030210603
:10020600F00080307002031D0A291A302002031CF8
:100216000D2925298030F000803021067002031D4B
:10022600162920080F3C031C242980302106F000E3
:1002360080307002031D21290A302002031C242964
:10024600252926293629200887000630FB00133089
:10025600FC00AD30FD00FD0B2E29FC0B2E29FB0BFF
:100266002E29000000000130A002031CA103D7289C
:100276001530A0000030A10080302106F00080304B
:100286007002031D482900302002031C8C29051822
:100296004F29870188018C2908108812881588142F
:1002A6008030F000803021067002031D5C29200892
:1002B600033C031C6029881008158030F00080304C
:1002C60021067002031D692920080F3C031C7729AB
:1002D60080302106F00080307002031D74290A3038
:1002E6002002031C77298729200887000630FB0097
:1002F6001330FC00AD30FD00FD0B7F29FC0B7F2980
:10030600FB0B7F29000000000130A002031CA103A3
:100316003F29D0280518482A8801051C9329472A11
:10032600851C062AA201A3010230F4000030F50064
:100336002408F0002508F10042207808F00079082A
:10034600F10000307106031DAA2900307006031D56
:10035600B729051CAF29B729081108140816870103
:100366008518B629B72997290230F4000030F50020
:100376002408F0002508F10042207808F0007908EA
:10038600F10000307106031DCA29003070060319FA
:10039600052A051CCF29052AA601A7010330A000BE
:1003A6000030A10080302106F00080307002031D6D
:1003B600DE2900302002031CF729200887000815D3
:1003C60008160630FB001330FC00AD30FD00FD0BB7
:1003D600EA29FC0BEA29FB0BEA29000000000130A0
:1003E600A002031CA103D529A60A0319A70AA40A79
:1003F6000319A50A08110814081687018518042A86
:10040600052AB7299329A40A0319A50A8518462A95
:10041600051C0E2A462A08100812881400302306E6
:10042600031D172A0130220603193E2A0330A000B5
:100436000030A10080302106F00080307002031DDC
:10044600262A00302002031C3E2A20088700881630
:100456000630FB001330FC00AD30FD00FD0B312AE9
:10046600FC0B312AFB0B312A000000000130A002F0
:10047600031CA1031D2A0130A2000030A30088122C
:1004860008118815092A8F298D298801CF284A2A1B
:02400E004A2F37
:00000001FF
